{
  "_format": "hh-sol-artifact-1",
  "contractName": "EventFactory",
  "sourceName": "contracts/EventFactory.sol",
  "abi": [
    {
      "inputs": [],
      "stateMutability": "nonpayable",
      "type": "constructor"
    },
    {
      "anonymous": false,
      "inputs": [
        {
          "indexed": true,
          "internalType": "address",
          "name": "previousOwner",
          "type": "address"
        },
        {
          "indexed": true,
          "internalType": "address",
          "name": "newOwner",
          "type": "address"
        }
      ],
      "name": "OwnershipTransferred",
      "type": "event"
    },
    {
      "anonymous": false,
      "inputs": [
        {
          "indexed": false,
          "internalType": "uint256",
          "name": "eventId",
          "type": "uint256"
        },
        {
          "indexed": false,
          "internalType": "address",
          "name": "owner",
          "type": "address"
        },
        {
          "indexed": false,
          "internalType": "string",
          "name": "eventName",
          "type": "string"
        },
        {
          "indexed": false,
          "internalType": "address",
          "name": "eventAddress",
          "type": "address"
        }
      ],
      "name": "newEventCreated",
      "type": "event"
    },
    {
      "inputs": [
        {
          "internalType": "string",
          "name": "eventName",
          "type": "string"
        },
        {
          "internalType": "string",
          "name": "eventSymbol",
          "type": "string"
        },
        {
          "internalType": "address",
          "name": "eventOwner",
          "type": "address"
        }
      ],
      "name": "createNewEvent",
      "outputs": [
        {
          "internalType": "address",
          "name": "",
          "type": "address"
        }
      ],
      "stateMutability": "nonpayable",
      "type": "function"
    },
    {
      "inputs": [
        {
          "internalType": "uint256",
          "name": "eventId",
          "type": "uint256"
        }
      ],
      "name": "getEventById",
      "outputs": [
        {
          "internalType": "uint256",
          "name": "",
          "type": "uint256"
        },
        {
          "internalType": "address",
          "name": "",
          "type": "address"
        },
        {
          "internalType": "string",
          "name": "",
          "type": "string"
        },
        {
          "internalType": "address",
          "name": "",
          "type": "address"
        }
      ],
      "stateMutability": "view",
      "type": "function"
    },
    {
      "inputs": [],
      "name": "owner",
      "outputs": [
        {
          "internalType": "address",
          "name": "",
          "type": "address"
        }
      ],
      "stateMutability": "view",
      "type": "function"
    },
    {
      "inputs": [],
      "name": "renounceOwnership",
      "outputs": [],
      "stateMutability": "nonpayable",
      "type": "function"
    },
    {
      "inputs": [
        {
          "internalType": "address",
          "name": "newOwner",
          "type": "address"
        }
      ],
      "name": "transferOwnership",
      "outputs": [],
      "stateMutability": "nonpayable",
      "type": "function"
    }
  ],
  "bytecode": "0x608060405234801561001057600080fd5b5061002d61002261003a60201b60201c565b61004260201b60201c565b6000600181905550610106565b600033905090565b60008060009054906101000a900473ffffffffffffffffffffffffffffffffffffffff169050816000806101000a81548173ffffffffffffffffffffffffffffffffffffffff021916908373ffffffffffffffffffffffffffffffffffffffff1602179055508173ffffffffffffffffffffffffffffffffffffffff168173ffffffffffffffffffffffffffffffffffffffff167f8be0079c531659141344cd1fd0a4f28419497f9722a3daafe3b4186f6b6457e060405160405180910390a35050565b61360d806101156000396000f3fe60806040523480156200001157600080fd5b50600436106200005e5760003560e01c806314a630291462000063578063715018a614620000995780638da5cb5b14620000a5578063b98079bc14620000c7578063f2fde38b1462000100575b600080fd5b6200008160048036038101906200007b919062000800565b62000120565b604051620000909190620008ab565b60405180910390f35b620000a362000292565b005b620000af620002aa565b604051620000be9190620008ab565b60405180910390f35b620000e56004803603810190620000df919062000903565b620002d3565b604051620000f79493929190620009cf565b60405180910390f35b6200011e600480360381019062000118919062000a23565b6200043c565b005b60006200012c620004c6565b60008484846040516200013f9062000617565b6200014d9392919062000a55565b604051809103906000f0801580156200016a573d6000803e3d6000fd5b509050600060026000600154815260200190815260200160002090506001548160000181905550838160010160006101000a81548173ffffffffffffffffffffffffffffffffffffffff021916908373ffffffffffffffffffffffffffffffffffffffff16021790555085816002019081620001e7919062000cd6565b50818160030160006101000a81548173ffffffffffffffffffffffffffffffffffffffff021916908373ffffffffffffffffffffffffffffffffffffffff1602179055507f40292151c4ee9b5d67c96b1948ec43ed4f1e58731093adb41e2c2b375bdaed94600154858885604051620002649493929190620009cf565b60405180910390a160016000815480929190620002819062000dec565b919050555081925050509392505050565b6200029c620004c6565b620002a860006200054b565b565b60008060009054906101000a900473ffffffffffffffffffffffffffffffffffffffff16905090565b60008060606000808510158015620002ec575060015485105b6200032e576040517f08c379a0000000000000000000000000000000000000000000000000000000008152600401620003259062000e89565b60405180910390fd5b600060026000878152602001908152602001600020905080600001548160010160009054906101000a900473ffffffffffffffffffffffffffffffffffffffff16826002018360030160009054906101000a900473ffffffffffffffffffffffffffffffffffffffff16818054620003a69062000acf565b80601f0160208091040260200160405190810160405280929190818152602001828054620003d49062000acf565b8015620004255780601f10620003f95761010080835404028352916020019162000425565b820191906000526020600020905b8154815290600101906020018083116200040757829003601f168201915b505050505091509450945094509450509193509193565b62000446620004c6565b600073ffffffffffffffffffffffffffffffffffffffff168173ffffffffffffffffffffffffffffffffffffffff1603620004b8576040517f08c379a0000000000000000000000000000000000000000000000000000000008152600401620004af9062000f21565b60405180910390fd5b620004c3816200054b565b50565b620004d06200060f565b73ffffffffffffffffffffffffffffffffffffffff16620004f0620002aa565b73ffffffffffffffffffffffffffffffffffffffff161462000549576040517f08c379a0000000000000000000000000000000000000000000000000000000008152600401620005409062000f93565b60405180910390fd5b565b60008060009054906101000a900473ffffffffffffffffffffffffffffffffffffffff169050816000806101000a81548173ffffffffffffffffffffffffffffffffffffffff021916908373ffffffffffffffffffffffffffffffffffffffff1602179055508173ffffffffffffffffffffffffffffffffffffffff168173ffffffffffffffffffffffffffffffffffffffff167f8be0079c531659141344cd1fd0a4f28419497f9722a3daafe3b4186f6b6457e060405160405180910390a35050565b600033905090565b6126228062000fb683390190565b6000604051905090565b600080fd5b600080fd5b600080fd5b600080fd5b6000601f19601f8301169050919050565b7f4e487b7100000000000000000000000000000000000000000000000000000000600052604160045260246000fd5b6200068e8262000643565b810181811067ffffffffffffffff82111715620006b057620006af62000654565b5b80604052505050565b6000620006c562000625565b9050620006d3828262000683565b919050565b600067ffffffffffffffff821115620006f657620006f562000654565b5b620007018262000643565b9050602081019050919050565b82818337600083830152505050565b6000620007346200072e84620006d8565b620006b9565b9050828152602081018484840111156200075357620007526200063e565b5b620007608482856200070e565b509392505050565b600082601f83011262000780576200077f62000639565b5b8135620007928482602086016200071d565b91505092915050565b600073ffffffffffffffffffffffffffffffffffffffff82169050919050565b6000620007c8826200079b565b9050919050565b620007da81620007bb565b8114620007e657600080fd5b50565b600081359050620007fa81620007cf565b92915050565b6000806000606084860312156200081c576200081b6200062f565b5b600084013567ffffffffffffffff8111156200083d576200083c62000634565b5b6200084b8682870162000768565b935050602084013567ffffffffffffffff8111156200086f576200086e62000634565b5b6200087d8682870162000768565b92505060406200089086828701620007e9565b9150509250925092565b620008a581620007bb565b82525050565b6000602082019050620008c260008301846200089a565b92915050565b6000819050919050565b620008dd81620008c8565b8114620008e957600080fd5b50565b600081359050620008fd81620008d2565b92915050565b6000602082840312156200091c576200091b6200062f565b5b60006200092c84828501620008ec565b91505092915050565b6200094081620008c8565b82525050565b600081519050919050565b600082825260208201905092915050565b60005b838110156200098257808201518184015260208101905062000965565b60008484015250505050565b60006200099b8262000946565b620009a7818562000951565b9350620009b981856020860162000962565b620009c48162000643565b840191505092915050565b6000608082019050620009e6600083018762000935565b620009f560208301866200089a565b818103604083015262000a0981856200098e565b905062000a1a60608301846200089a565b95945050505050565b60006020828403121562000a3c5762000a3b6200062f565b5b600062000a4c84828501620007e9565b91505092915050565b6000606082019050818103600083015262000a7181866200098e565b9050818103602083015262000a8781856200098e565b905062000a9860408301846200089a565b949350505050565b7f4e487b7100000000000000000000000000000000000000000000000000000000600052602260045260246000fd5b6000600282049050600182168062000ae857607f821691505b60208210810362000afe5762000afd62000aa0565b5b50919050565b60008190508160005260206000209050919050565b60006020601f8301049050919050565b600082821b905092915050565b60006008830262000b687fffffffffffffffffffffffffffffffffffffffffffffffffffffffffffffffff8262000b29565b62000b74868362000b29565b95508019841693508086168417925050509392505050565b6000819050919050565b600062000bb762000bb162000bab84620008c8565b62000b8c565b620008c8565b9050919050565b6000819050919050565b62000bd38362000b96565b62000beb62000be28262000bbe565b84845462000b36565b825550505050565b600090565b62000c0262000bf3565b62000c0f81848462000bc8565b505050565b5b8181101562000c375762000c2b60008262000bf8565b60018101905062000c15565b5050565b601f82111562000c865762000c508162000b04565b62000c5b8462000b19565b8101602085101562000c6b578190505b62000c8362000c7a8562000b19565b83018262000c14565b50505b505050565b600082821c905092915050565b600062000cab6000198460080262000c8b565b1980831691505092915050565b600062000cc6838362000c98565b9150826002028217905092915050565b62000ce18262000946565b67ffffffffffffffff81111562000cfd5762000cfc62000654565b5b62000d09825462000acf565b62000d1682828562000c3b565b600060209050601f83116001811462000d4e576000841562000d39578287015190505b62000d45858262000cb8565b86555062000db5565b601f19841662000d5e8662000b04565b60005b8281101562000d885784890151825560018201915060208501945060208101905062000d61565b8683101562000da8578489015162000da4601f89168262000c98565b8355505b6001600288020188555050505b505050505050565b7f4e487b7100000000000000000000000000000000000000000000000000000000600052601160045260246000fd5b600062000df982620008c8565b91507fffffffffffffffffffffffffffffffffffffffffffffffffffffffffffffffff820362000e2e5762000e2d62000dbd565b5b600182019050919050565b7f506c65617365207375626d697420612076616c6964204576656e742049640000600082015250565b600062000e71601e8362000951565b915062000e7e8262000e39565b602082019050919050565b6000602082019050818103600083015262000ea48162000e62565b9050919050565b7f4f776e61626c653a206e6577206f776e657220697320746865207a65726f206160008201527f6464726573730000000000000000000000000000000000000000000000000000602082015250565b600062000f0960268362000951565b915062000f168262000eab565b604082019050919050565b6000602082019050818103600083015262000f3c8162000efa565b9050919050565b7f4f776e61626c653a2063616c6c6572206973206e6f7420746865206f776e6572600082015250565b600062000f7b60208362000951565b915062000f888262000f43565b602082019050919050565b6000602082019050818103600083015262000fae8162000f6c565b905091905056fe60806040523480156200001157600080fd5b5060405162002622380380620026228339818101604052810190620000379190620002cc565b828281600290816200004a9190620005b1565b5080600390816200005c9190620005b1565b506200006d620000cf60201b60201c565b6000819055505050600160088190555080600960006101000a81548173ffffffffffffffffffffffffffffffffffffffff021916908373ffffffffffffffffffffffffffffffffffffffff1602179055506000600a8190555050505062000698565b600090565b6000604051905090565b600080fd5b600080fd5b600080fd5b600080fd5b6000601f19601f8301169050919050565b7f4e487b7100000000000000000000000000000000000000000000000000000000600052604160045260246000fd5b6200013d82620000f2565b810181811067ffffffffffffffff821117156200015f576200015e62000103565b5b80604052505050565b600062000174620000d4565b905062000182828262000132565b919050565b600067ffffffffffffffff821115620001a557620001a462000103565b5b620001b082620000f2565b9050602081019050919050565b60005b83811015620001dd578082015181840152602081019050620001c0565b60008484015250505050565b600062000200620001fa8462000187565b62000168565b9050828152602081018484840111156200021f576200021e620000ed565b5b6200022c848285620001bd565b509392505050565b600082601f8301126200024c576200024b620000e8565b5b81516200025e848260208601620001e9565b91505092915050565b600073ffffffffffffffffffffffffffffffffffffffff82169050919050565b6000620002948262000267565b9050919050565b620002a68162000287565b8114620002b257600080fd5b50565b600081519050620002c6816200029b565b92915050565b600080600060608486031215620002e857620002e7620000de565b5b600084015167ffffffffffffffff811115620003095762000308620000e3565b5b620003178682870162000234565b935050602084015167ffffffffffffffff8111156200033b576200033a620000e3565b5b620003498682870162000234565b92505060406200035c86828701620002b5565b9150509250925092565b600081519050919050565b7f4e487b7100000000000000000000000000000000000000000000000000000000600052602260045260246000fd5b60006002820490506001821680620003b957607f821691505b602082108103620003cf57620003ce62000371565b5b50919050565b60008190508160005260206000209050919050565b60006020601f8301049050919050565b600082821b905092915050565b600060088302620004397fffffffffffffffffffffffffffffffffffffffffffffffffffffffffffffffff82620003fa565b620004458683620003fa565b95508019841693508086168417925050509392505050565b6000819050919050565b6000819050919050565b6000620004926200048c62000486846200045d565b62000467565b6200045d565b9050919050565b6000819050919050565b620004ae8362000471565b620004c6620004bd8262000499565b84845462000407565b825550505050565b600090565b620004dd620004ce565b620004ea818484620004a3565b505050565b5b81811015620005125762000506600082620004d3565b600181019050620004f0565b5050565b601f82111562000561576200052b81620003d5565b6200053684620003ea565b8101602085101562000546578190505b6200055e6200055585620003ea565b830182620004ef565b50505b505050565b600082821c905092915050565b6000620005866000198460080262000566565b1980831691505092915050565b6000620005a1838362000573565b9150826002028217905092915050565b620005bc8262000366565b67ffffffffffffffff811115620005d857620005d762000103565b5b620005e48254620003a0565b620005f182828562000516565b600060209050601f83116001811462000629576000841562000614578287015190505b62000620858262000593565b86555062000690565b601f1984166200063986620003d5565b60005b8281101562000663578489015182556001820191506020850194506020810190506200063c565b868310156200068357848901516200067f601f89168262000573565b8355505b6001600288020188555050505b505050505050565b611f7a80620006a86000396000f3fe6080604052600436106100e85760003560e01c80636352211e1161008a578063a22cb46511610059578063a22cb465146102d2578063b88d4fde146102fb578063c87b56dd14610317578063e985e9c514610354576100e8565b80636352211e1461021157806370a082311461024e57806394bf804d1461028b57806395d89b41146102a7576100e8565b8063095ea7b3116100c6578063095ea7b31461019257806318160ddd146101ae57806323b872dd146101d957806342842e0e146101f5576100e8565b806301ffc9a7146100ed57806306fdde031461012a578063081812fc14610155575b600080fd5b3480156100f957600080fd5b50610114600480360381019061010f919061160f565b610391565b6040516101219190611657565b60405180910390f35b34801561013657600080fd5b5061013f610423565b60405161014c9190611702565b60405180910390f35b34801561016157600080fd5b5061017c6004803603810190610177919061175a565b6104b5565b60405161018991906117c8565b60405180910390f35b6101ac60048036038101906101a7919061180f565b610534565b005b3480156101ba57600080fd5b506101c3610678565b6040516101d0919061185e565b60405180910390f35b6101f360048036038101906101ee9190611879565b61068f565b005b61020f600480360381019061020a9190611879565b6109b1565b005b34801561021d57600080fd5b506102386004803603810190610233919061175a565b6109d1565b60405161024591906117c8565b60405180910390f35b34801561025a57600080fd5b50610275600480360381019061027091906118cc565b6109e3565b604051610282919061185e565b60405180910390f35b6102a560048036038101906102a091906118f9565b610a9b565b005b3480156102b357600080fd5b506102bc610bc0565b6040516102c99190611702565b60405180910390f35b3480156102de57600080fd5b506102f960048036038101906102f49190611965565b610c52565b005b61031560048036038101906103109190611ada565b610d5d565b005b34801561032357600080fd5b5061033e6004803603810190610339919061175a565b610dd0565b60405161034b9190611702565b60405180910390f35b34801561036057600080fd5b5061037b60048036038101906103769190611b5d565b610e6e565b6040516103889190611657565b60405180910390f35b60006301ffc9a760e01b827bffffffffffffffffffffffffffffffffffffffffffffffffffffffff191614806103ec57506380ac58cd60e01b827bffffffffffffffffffffffffffffffffffffffffffffffffffffffff1916145b8061041c5750635b5e139f60e01b827bffffffffffffffffffffffffffffffffffffffffffffffffffffffff1916145b9050919050565b60606002805461043290611bcc565b80601f016020809104026020016040519081016040528092919081815260200182805461045e90611bcc565b80156104ab5780601f10610480576101008083540402835291602001916104ab565b820191906000526020600020905b81548152906001019060200180831161048e57829003601f168201915b5050505050905090565b60006104c082610f02565b6104f6576040517fcf4700e400000000000000000000000000000000000000000000000000000000815260040160405180910390fd5b6006600083815260200190815260200160002060000160009054906101000a900473ffffffffffffffffffffffffffffffffffffffff169050919050565b600061053f826109d1565b90508073ffffffffffffffffffffffffffffffffffffffff16610560610f61565b73ffffffffffffffffffffffffffffffffffffffff16146105c35761058c81610587610f61565b610e6e565b6105c2576040517fcfb3b94200000000000000000000000000000000000000000000000000000000815260040160405180910390fd5b5b826006600084815260200190815260200160002060000160006101000a81548173ffffffffffffffffffffffffffffffffffffffff021916908373ffffffffffffffffffffffffffffffffffffffff160217905550818373ffffffffffffffffffffffffffffffffffffffff168273ffffffffffffffffffffffffffffffffffffffff167f8c5be1e5ebec7d5bd14f71427d1e84f3dd0314c0f7b2291e5b200ac8c7c3b92560405160405180910390a4505050565b6000610682610f69565b6001546000540303905090565b600061069a82610f6e565b90508373ffffffffffffffffffffffffffffffffffffffff168173ffffffffffffffffffffffffffffffffffffffff1614610701576040517fa114810000000000000000000000000000000000000000000000000000000000815260040160405180910390fd5b60008061070d8461103a565b91509150610723818761071e610f61565b611061565b61076f5761073886610733610f61565b610e6e565b61076e576040517f59c896be00000000000000000000000000000000000000000000000000000000815260040160405180910390fd5b5b600073ffffffffffffffffffffffffffffffffffffffff168573ffffffffffffffffffffffffffffffffffffffff16036107d5576040517fea553b3400000000000000000000000000000000000000000000000000000000815260040160405180910390fd5b6107e286868660016110a5565b80156107ed57600082555b600560008773ffffffffffffffffffffffffffffffffffffffff1673ffffffffffffffffffffffffffffffffffffffff168152602001908152602001600020600081546001900391905081905550600560008673ffffffffffffffffffffffffffffffffffffffff1673ffffffffffffffffffffffffffffffffffffffff16815260200190815260200160002060008154600101919050819055506108bb856108978888876110ab565b7c0200000000000000000000000000000000000000000000000000000000176110d3565b600460008681526020019081526020016000208190555060007c0200000000000000000000000000000000000000000000000000000000841603610941576000600185019050600060046000838152602001908152602001600020540361093f57600054811461093e578360046000838152602001908152602001600020819055505b5b505b838573ffffffffffffffffffffffffffffffffffffffff168773ffffffffffffffffffffffffffffffffffffffff167fddf252ad1be2c89b69c2b068fc378daa952ba7f163c4a11628f55a4df523b3ef60405160405180910390a46109a986868660016110fe565b505050505050565b6109cc83838360405180602001604052806000815250610d5d565b505050565b60006109dc82610f6e565b9050919050565b60008073ffffffffffffffffffffffffffffffffffffffff168273ffffffffffffffffffffffffffffffffffffffff1603610a4a576040517f8f4eb60400000000000000000000000000000000000000000000000000000000815260040160405180910390fd5b67ffffffffffffffff600560008473ffffffffffffffffffffffffffffffffffffffff1673ffffffffffffffffffffffffffffffffffffffff16815260200190815260200160002054169050919050565b3373ffffffffffffffffffffffffffffffffffffffff163273ffffffffffffffffffffffffffffffffffffffff1614610b09576040517f08c379a0000000000000000000000000000000000000000000000000000000008152600401610b0090611c49565b60405180910390fd5b610b11611104565b60008211610b54576040517f08c379a0000000000000000000000000000000000000000000000000000000008152600401610b4b90611cdb565b60405180910390fd5b610b5e8183611153565b81600a6000828254610b709190611d2a565b925050819055507f3122bcd96d2132d50763a26e2d77f12a9d9c020f0db2f05915a545370b653a90600a548383604051610bac93929190611d5e565b60405180910390a1610bbc611171565b5050565b606060038054610bcf90611bcc565b80601f0160208091040260200160405190810160405280929190818152602001828054610bfb90611bcc565b8015610c485780601f10610c1d57610100808354040283529160200191610c48565b820191906000526020600020905b815481529060010190602001808311610c2b57829003601f168201915b5050505050905090565b8060076000610c5f610f61565b73ffffffffffffffffffffffffffffffffffffffff1673ffffffffffffffffffffffffffffffffffffffff16815260200190815260200160002060008473ffffffffffffffffffffffffffffffffffffffff1673ffffffffffffffffffffffffffffffffffffffff16815260200190815260200160002060006101000a81548160ff0219169083151502179055508173ffffffffffffffffffffffffffffffffffffffff16610d0c610f61565b73ffffffffffffffffffffffffffffffffffffffff167f17307eab39ab6107e8899845ad3d59bd9653f200f220920489ca2b5937696c3183604051610d519190611657565b60405180910390a35050565b610d6884848461068f565b60008373ffffffffffffffffffffffffffffffffffffffff163b14610dca57610d938484848461117b565b610dc9576040517fd1a57ed600000000000000000000000000000000000000000000000000000000815260040160405180910390fd5b5b50505050565b6060610ddb82610f02565b610e11576040517fa14c4b5000000000000000000000000000000000000000000000000000000000815260040160405180910390fd5b6000610e1b6112cb565b90506000815103610e3b5760405180602001604052806000815250610e66565b80610e45846112e2565b604051602001610e56929190611dd1565b6040516020818303038152906040525b915050919050565b6000600760008473ffffffffffffffffffffffffffffffffffffffff1673ffffffffffffffffffffffffffffffffffffffff16815260200190815260200160002060008373ffffffffffffffffffffffffffffffffffffffff1673ffffffffffffffffffffffffffffffffffffffff16815260200190815260200160002060009054906101000a900460ff16905092915050565b600081610f0d610f69565b11158015610f1c575060005482105b8015610f5a575060007c0100000000000000000000000000000000000000000000000000000000600460008581526020019081526020016000205416145b9050919050565b600033905090565b600090565b60008082905080610f7d610f69565b11611003576000548110156110025760006004600083815260200190815260200160002054905060007c0100000000000000000000000000000000000000000000000000000000821603611000575b60008103610ff6576004600083600190039350838152602001908152602001600020549050610fcc565b8092505050611035565b505b5b6040517fdf2d9b4200000000000000000000000000000000000000000000000000000000815260040160405180910390fd5b919050565b60008060006006600085815260200190815260200160002090508092508254915050915091565b600073ffffffffffffffffffffffffffffffffffffffff8316925073ffffffffffffffffffffffffffffffffffffffff821691508382148383141790509392505050565b50505050565b60008060e883901c905060e86110c2868684611332565b62ffffff16901b9150509392505050565b600073ffffffffffffffffffffffffffffffffffffffff83169250814260a01b178317905092915050565b50505050565b600260085403611149576040517f08c379a000000000000000000000000000000000000000000000000000000000815260040161114090611e41565b60405180910390fd5b6002600881905550565b61116d82826040518060200160405280600081525061133b565b5050565b6001600881905550565b60008373ffffffffffffffffffffffffffffffffffffffff1663150b7a026111a1610f61565b8786866040518563ffffffff1660e01b81526004016111c39493929190611eb6565b6020604051808303816000875af19250505080156111ff57506040513d601f19601f820116820180604052508101906111fc9190611f17565b60015b611278573d806000811461122f576040519150601f19603f3d011682016040523d82523d6000602084013e611234565b606091505b506000815103611270576040517fd1a57ed600000000000000000000000000000000000000000000000000000000815260040160405180910390fd5b805181602001fd5b63150b7a0260e01b7bffffffffffffffffffffffffffffffffffffffffffffffffffffffff1916817bffffffffffffffffffffffffffffffffffffffffffffffffffffffff191614915050949350505050565b606060405180602001604052806000815250905090565b606060a060405101806040526020810391506000825281835b60011561131d57600184039350600a81066030018453600a81049050806112fb575b50828103602084039350808452505050919050565b60009392505050565b61134583836113d8565b60008373ffffffffffffffffffffffffffffffffffffffff163b146113d357600080549050600083820390505b611385600086838060010194508661117b565b6113bb576040517fd1a57ed600000000000000000000000000000000000000000000000000000000815260040160405180910390fd5b8181106113725781600054146113d057600080fd5b50505b505050565b60008054905060008203611418576040517fb562e8dd00000000000000000000000000000000000000000000000000000000815260040160405180910390fd5b61142560008483856110a5565b600160406001901b178202600560008573ffffffffffffffffffffffffffffffffffffffff1673ffffffffffffffffffffffffffffffffffffffff1681526020019081526020016000206000828254019250508190555061149c8361148d60008660006110ab565b61149685611593565b176110d3565b6004600083815260200190815260200160002081905550600080838301905073ffffffffffffffffffffffffffffffffffffffff85169150828260007fddf252ad1be2c89b69c2b068fc378daa952ba7f163c4a11628f55a4df523b3ef600080a4600183015b81811461153d57808360007fddf252ad1be2c89b69c2b068fc378daa952ba7f163c4a11628f55a4df523b3ef600080a4600181019050611502565b5060008203611578576040517f2e07630000000000000000000000000000000000000000000000000000000000815260040160405180910390fd5b80600081905550505061158e60008483856110fe565b505050565b60006001821460e11b9050919050565b6000604051905090565b600080fd5b600080fd5b60007fffffffff0000000000000000000000000000000000000000000000000000000082169050919050565b6115ec816115b7565b81146115f757600080fd5b50565b600081359050611609816115e3565b92915050565b600060208284031215611625576116246115ad565b5b6000611633848285016115fa565b91505092915050565b60008115159050919050565b6116518161163c565b82525050565b600060208201905061166c6000830184611648565b92915050565b600081519050919050565b600082825260208201905092915050565b60005b838110156116ac578082015181840152602081019050611691565b60008484015250505050565b6000601f19601f8301169050919050565b60006116d482611672565b6116de818561167d565b93506116ee81856020860161168e565b6116f7816116b8565b840191505092915050565b6000602082019050818103600083015261171c81846116c9565b905092915050565b6000819050919050565b61173781611724565b811461174257600080fd5b50565b6000813590506117548161172e565b92915050565b6000602082840312156117705761176f6115ad565b5b600061177e84828501611745565b91505092915050565b600073ffffffffffffffffffffffffffffffffffffffff82169050919050565b60006117b282611787565b9050919050565b6117c2816117a7565b82525050565b60006020820190506117dd60008301846117b9565b92915050565b6117ec816117a7565b81146117f757600080fd5b50565b600081359050611809816117e3565b92915050565b60008060408385031215611826576118256115ad565b5b6000611834858286016117fa565b925050602061184585828601611745565b9150509250929050565b61185881611724565b82525050565b6000602082019050611873600083018461184f565b92915050565b600080600060608486031215611892576118916115ad565b5b60006118a0868287016117fa565b93505060206118b1868287016117fa565b92505060406118c286828701611745565b9150509250925092565b6000602082840312156118e2576118e16115ad565b5b60006118f0848285016117fa565b91505092915050565b600080604083850312156119105761190f6115ad565b5b600061191e85828601611745565b925050602061192f858286016117fa565b9150509250929050565b6119428161163c565b811461194d57600080fd5b50565b60008135905061195f81611939565b92915050565b6000806040838503121561197c5761197b6115ad565b5b600061198a858286016117fa565b925050602061199b85828601611950565b9150509250929050565b600080fd5b600080fd5b7f4e487b7100000000000000000000000000000000000000000000000000000000600052604160045260246000fd5b6119e7826116b8565b810181811067ffffffffffffffff82111715611a0657611a056119af565b5b80604052505050565b6000611a196115a3565b9050611a2582826119de565b919050565b600067ffffffffffffffff821115611a4557611a446119af565b5b611a4e826116b8565b9050602081019050919050565b82818337600083830152505050565b6000611a7d611a7884611a2a565b611a0f565b905082815260208101848484011115611a9957611a986119aa565b5b611aa4848285611a5b565b509392505050565b600082601f830112611ac157611ac06119a5565b5b8135611ad1848260208601611a6a565b91505092915050565b60008060008060808587031215611af457611af36115ad565b5b6000611b02878288016117fa565b9450506020611b13878288016117fa565b9350506040611b2487828801611745565b925050606085013567ffffffffffffffff811115611b4557611b446115b2565b5b611b5187828801611aac565b91505092959194509250565b60008060408385031215611b7457611b736115ad565b5b6000611b82858286016117fa565b9250506020611b93858286016117fa565b9150509250929050565b7f4e487b7100000000000000000000000000000000000000000000000000000000600052602260045260246000fd5b60006002820490506001821680611be457607f821691505b602082108103611bf757611bf6611b9d565b5b50919050565b7f5468652063616c6c657220697320616e6f7468657220636f6e74726163740000600082015250565b6000611c33601e8361167d565b9150611c3e82611bfd565b602082019050919050565b60006020820190508181036000830152611c6281611c26565b9050919050565b7f5175616e746974792073686f756c64206265206d6f7265207468616e207a657260008201527f6f00000000000000000000000000000000000000000000000000000000000000602082015250565b6000611cc560218361167d565b9150611cd082611c69565b604082019050919050565b60006020820190508181036000830152611cf481611cb8565b9050919050565b7f4e487b7100000000000000000000000000000000000000000000000000000000600052601160045260246000fd5b6000611d3582611724565b9150611d4083611724565b9250828201905080821115611d5857611d57611cfb565b5b92915050565b6000606082019050611d73600083018661184f565b611d80602083018561184f565b611d8d60408301846117b9565b949350505050565b600081905092915050565b6000611dab82611672565b611db58185611d95565b9350611dc581856020860161168e565b80840191505092915050565b6000611ddd8285611da0565b9150611de98284611da0565b91508190509392505050565b7f5265656e7472616e637947756172643a207265656e7472616e742063616c6c00600082015250565b6000611e2b601f8361167d565b9150611e3682611df5565b602082019050919050565b60006020820190508181036000830152611e5a81611e1e565b9050919050565b600081519050919050565b600082825260208201905092915050565b6000611e8882611e61565b611e928185611e6c565b9350611ea281856020860161168e565b611eab816116b8565b840191505092915050565b6000608082019050611ecb60008301876117b9565b611ed860208301866117b9565b611ee5604083018561184f565b8181036060830152611ef78184611e7d565b905095945050505050565b600081519050611f11816115e3565b92915050565b600060208284031215611f2d57611f2c6115ad565b5b6000611f3b84828501611f02565b9150509291505056fea264697066735822122009d984d75fe09e1991b689800037b16684d2b327e615b066e77f60a97beb04be64736f6c63430008110033a26469706673582212204587a638652ace379acd25a987ab2313057d539162d6165a52f1ae6fdc9f90e064736f6c63430008110033",
  "linkReferences": {},
  "deployedLinkReferences": {}
}